{
  "contractName": "ERC20Token",
  "abi": [
    {
      "inputs": [],
      "stateMutability": "nonpayable",
      "type": "constructor"
    },
    {
      "anonymous": false,
      "inputs": [
        {
          "indexed": true,
          "internalType": "address",
          "name": "owner",
          "type": "address"
        },
        {
          "indexed": true,
          "internalType": "address",
          "name": "spender",
          "type": "address"
        },
        {
          "indexed": false,
          "internalType": "uint256",
          "name": "value",
          "type": "uint256"
        }
      ],
      "name": "Approval",
      "type": "event"
    },
    {
      "anonymous": false,
      "inputs": [
        {
          "indexed": true,
          "internalType": "address",
          "name": "from",
          "type": "address"
        },
        {
          "indexed": true,
          "internalType": "address",
          "name": "to",
          "type": "address"
        },
        {
          "indexed": false,
          "internalType": "uint256",
          "name": "value",
          "type": "uint256"
        }
      ],
      "name": "Transfer",
      "type": "event"
    },
    {
      "inputs": [
        {
          "internalType": "address",
          "name": "",
          "type": "address"
        },
        {
          "internalType": "address",
          "name": "",
          "type": "address"
        }
      ],
      "name": "allowance",
      "outputs": [
        {
          "internalType": "uint256",
          "name": "",
          "type": "uint256"
        }
      ],
      "stateMutability": "view",
      "type": "function",
      "constant": true
    },
    {
      "inputs": [
        {
          "internalType": "address",
          "name": "",
          "type": "address"
        }
      ],
      "name": "balanceOf",
      "outputs": [
        {
          "internalType": "uint256",
          "name": "",
          "type": "uint256"
        }
      ],
      "stateMutability": "view",
      "type": "function",
      "constant": true
    },
    {
      "inputs": [],
      "name": "name",
      "outputs": [
        {
          "internalType": "string",
          "name": "",
          "type": "string"
        }
      ],
      "stateMutability": "view",
      "type": "function",
      "constant": true
    },
    {
      "inputs": [],
      "name": "symbol",
      "outputs": [
        {
          "internalType": "string",
          "name": "",
          "type": "string"
        }
      ],
      "stateMutability": "view",
      "type": "function",
      "constant": true
    },
    {
      "inputs": [],
      "name": "totalSupply",
      "outputs": [
        {
          "internalType": "uint256",
          "name": "",
          "type": "uint256"
        }
      ],
      "stateMutability": "view",
      "type": "function",
      "constant": true
    },
    {
      "inputs": [
        {
          "internalType": "address",
          "name": "to",
          "type": "address"
        },
        {
          "internalType": "uint256",
          "name": "amount",
          "type": "uint256"
        }
      ],
      "name": "transfer",
      "outputs": [
        {
          "internalType": "bool",
          "name": "",
          "type": "bool"
        }
      ],
      "stateMutability": "nonpayable",
      "type": "function"
    },
    {
      "inputs": [
        {
          "internalType": "address",
          "name": "spender",
          "type": "address"
        },
        {
          "internalType": "uint256",
          "name": "amount",
          "type": "uint256"
        }
      ],
      "name": "approve",
      "outputs": [
        {
          "internalType": "bool",
          "name": "",
          "type": "bool"
        }
      ],
      "stateMutability": "nonpayable",
      "type": "function"
    },
    {
      "inputs": [
        {
          "internalType": "address",
          "name": "from",
          "type": "address"
        },
        {
          "internalType": "address",
          "name": "to",
          "type": "address"
        },
        {
          "internalType": "uint256",
          "name": "amount",
          "type": "uint256"
        }
      ],
      "name": "transferFrom",
      "outputs": [
        {
          "internalType": "bool",
          "name": "",
          "type": "bool"
        }
      ],
      "stateMutability": "nonpayable",
      "type": "function"
    }
  ],
  "bytecode": "0x60c0604052600c60808190527f53616d706c6520546f6b656e000000000000000000000000000000000000000060a090815261003e91600091906100b0565b506040805180820190915260038082527f534d5000000000000000000000000000000000000000000000000000000000006020909201918252610083916001916100b0565b50620f424060025534801561009757600080fd5b506002543360009081526003602052604090205561019d565b8280546100bc90610149565b90600052602060002090601f0160209004810192826100de5760008555610124565b82601f106100f757805160ff1916838001178555610124565b82800160010185558215610124579182015b82811115610124578251825591602001919060010190610109565b50610130929150610134565b5090565b5b808211156101305760008155600101610135565b600181811c9082168061015d57607f821691505b60208210811415610197577f4e487b7100000000000000000000000000000000000000000000000000000000600052602260045260246000fd5b50919050565b6106d3806101ac6000396000f3fe608060405234801561001057600080fd5b50600436106100885760003560e01c806370a082311161005b57806370a08231146100f857806395d89b4114610118578063a9059cbb14610120578063dd62ed3e1461013357610088565b806306fdde031461008d578063095ea7b3146100ab57806318160ddd146100ce57806323b872dd146100e5575b600080fd5b61009561015e565b6040516100a291906105ca565b60405180910390f35b6100be6100b93660046105a1565b6101ec565b60405190151581526020016100a2565b6100d760025481565b6040519081526020016100a2565b6100be6100f3366004610566565b610258565b6100d7610106366004610513565b60036020526000908152604090205481565b610095610409565b6100be61012e3660046105a1565b610416565b6100d7610141366004610534565b600460209081526000928352604080842090915290825290205481565b6000805461016b9061064c565b80601f01602080910402602001604051908101604052809291908181526020018280546101979061064c565b80156101e45780601f106101b9576101008083540402835291602001916101e4565b820191906000526020600020905b8154815290600101906020018083116101c757829003601f168201915b505050505081565b3360008181526004602090815260408083206001600160a01b038716808552925280832085905551919290917f8c5be1e5ebec7d5bd14f71427d1e84f3dd0314c0f7b2291e5b200ac8c7c3b925906102479086815260200190565b60405180910390a350600192915050565b6001600160a01b03831660009081526004602090815260408083203384529091528120548211156102c45760405162461bcd60e51b8152602060048201526011602482015270416c6c6f77616e636520746f6f206c6f7760781b60448201526064015b60405180910390fd5b6001600160a01b03841660009081526003602052604090205482111561031e5760405162461bcd60e51b815260206004820152600f60248201526e42616c616e636520746f6f206c6f7760881b60448201526064016102bb565b6001600160a01b03841660009081526003602052604081208054849290610346908490610635565b90915550506001600160a01b0383166000908152600360205260408120805484929061037390849061061d565b90915550506001600160a01b0384166000908152600460209081526040808320338452909152812080548492906103ab908490610635565b92505081905550826001600160a01b0316846001600160a01b03167fddf252ad1be2c89b69c2b068fc378daa952ba7f163c4a11628f55a4df523b3ef846040516103f791815260200190565b60405180910390a35060019392505050565b6001805461016b9061064c565b336000908152600360205260408120548211156104695760405162461bcd60e51b81526020600482015260116024820152704e6f7420656e6f75676820746f6b656e7360781b60448201526064016102bb565b3360009081526003602052604081208054849290610488908490610635565b90915550506001600160a01b038316600090815260036020526040812080548492906104b590849061061d565b90915550506040518281526001600160a01b0384169033907fddf252ad1be2c89b69c2b068fc378daa952ba7f163c4a11628f55a4df523b3ef90602001610247565b80356001600160a01b038116811461050e57600080fd5b919050565b600060208284031215610524578081fd5b61052d826104f7565b9392505050565b60008060408385031215610546578081fd5b61054f836104f7565b915061055d602084016104f7565b90509250929050565b60008060006060848603121561057a578081fd5b610583846104f7565b9250610591602085016104f7565b9150604084013590509250925092565b600080604083850312156105b3578182fd5b6105bc836104f7565b946020939093013593505050565b6000602080835283518082850152825b818110156105f6578581018301518582016040015282016105da565b818111156106075783604083870101525b50601f01601f1916929092016040019392505050565b6000821982111561063057610630610687565b500190565b60008282101561064757610647610687565b500390565b600181811c9082168061066057607f821691505b6020821081141561068157634e487b7160e01b600052602260045260246000fd5b50919050565b634e487b7160e01b600052601160045260246000fdfea26469706673582212208502bb2eda4a5d4f1e5111c8d99b686e9a19b74ad88ba85200f380e775d7ea0764736f6c63430008030033",
  "immutableReferences": {},
  "source": "pragma solidity ^0.8.0;\n\ncontract ERC20Token {\n    string public name = \"Sample Token\";\n    string public symbol = \"SMP\";\n    uint256 public totalSupply = 1000000;\n    mapping(address => uint256) public balanceOf;\n    mapping(address => mapping(address => uint256)) public allowance;\n\n    constructor() {\n        balanceOf[msg.sender] = totalSupply;\n    }\n\n    function transfer(address to, uint256 amount) external returns (bool) {\n        require(balanceOf[msg.sender] >= amount, \"Not enough tokens\");\n        balanceOf[msg.sender] -= amount;\n        balanceOf[to] += amount;\n        emit Transfer(msg.sender, to, amount);\n        return true;\n    }\n\n    function approve(address spender, uint256 amount) external returns (bool) {\n        allowance[msg.sender][spender] = amount;\n        emit Approval(msg.sender, spender, amount);\n        return true;\n    }\n\n    function transferFrom(address from, address to, uint256 amount) external returns (bool) {\n        require(allowance[from][msg.sender] >= amount, \"Allowance too low\");\n        require(balanceOf[from] >= amount, \"Balance too low\");\n        balanceOf[from] -= amount;\n        balanceOf[to] += amount;\n        allowance[from][msg.sender] -= amount;\n        emit Transfer(from, to, amount);\n        return true;\n    }\n\n    event Transfer(address indexed from, address indexed to, uint256 value);\n    event Approval(address indexed owner, address indexed spender, uint256 value);\n}\n",
  "sourcePath": "/home/jeff/private_chain/truffleProject/contracts/ERC20Token.sol",
  "compiler": {
    "name": "solc",
    "version": "0.8.3+commit.8d00100c.Emscripten.clang"
  },
  "schemaVersion": "3.4.16",
  "updatedAt": "2024-05-15T15:36:50.857Z",
  "networkType": "ethereum",
  "devdoc": {
    "kind": "dev",
    "methods": {},
    "version": 1
  },
  "userdoc": {
    "kind": "user",
    "methods": {},
    "version": 1
  }
}