{
  "contractName": "ERC20Token",
  "abi": [
    {
      "anonymous": false,
      "inputs": [
        {
          "indexed": true,
          "internalType": "address",
          "name": "owner",
          "type": "address"
        },
        {
          "indexed": true,
          "internalType": "uint256",
          "name": "accountIndex",
          "type": "uint256"
        }
      ],
      "name": "AccountCreated",
      "type": "event"
    },
    {
      "anonymous": false,
      "inputs": [
        {
          "indexed": true,
          "internalType": "address",
          "name": "owner",
          "type": "address"
        },
        {
          "indexed": false,
          "internalType": "uint256",
          "name": "balance",
          "type": "uint256"
        }
      ],
      "name": "BalanceChecked",
      "type": "event"
    },
    {
      "anonymous": false,
      "inputs": [
        {
          "indexed": true,
          "internalType": "address",
          "name": "from",
          "type": "address"
        },
        {
          "indexed": true,
          "internalType": "address",
          "name": "to",
          "type": "address"
        },
        {
          "indexed": false,
          "internalType": "uint256",
          "name": "amount",
          "type": "uint256"
        }
      ],
      "name": "TransferCompleted",
      "type": "event"
    },
    {
      "inputs": [
        {
          "internalType": "address",
          "name": "",
          "type": "address"
        }
      ],
      "name": "accountIndex",
      "outputs": [
        {
          "internalType": "uint256",
          "name": "",
          "type": "uint256"
        }
      ],
      "stateMutability": "view",
      "type": "function",
      "constant": true
    },
    {
      "inputs": [
        {
          "internalType": "uint256",
          "name": "",
          "type": "uint256"
        }
      ],
      "name": "accounts",
      "outputs": [
        {
          "internalType": "address",
          "name": "owner",
          "type": "address"
        },
        {
          "internalType": "uint256",
          "name": "balance",
          "type": "uint256"
        }
      ],
      "stateMutability": "view",
      "type": "function",
      "constant": true
    },
    {
      "inputs": [
        {
          "internalType": "uint256",
          "name": "initialDeposit",
          "type": "uint256"
        }
      ],
      "name": "createAccount",
      "outputs": [],
      "stateMutability": "payable",
      "type": "function",
      "payable": true
    },
    {
      "inputs": [],
      "name": "checkBalance",
      "outputs": [
        {
          "internalType": "uint256",
          "name": "",
          "type": "uint256"
        }
      ],
      "stateMutability": "nonpayable",
      "type": "function"
    },
    {
      "inputs": [
        {
          "internalType": "address",
          "name": "_to",
          "type": "address"
        },
        {
          "internalType": "uint256",
          "name": "_amount",
          "type": "uint256"
        }
      ],
      "name": "transfer",
      "outputs": [],
      "stateMutability": "nonpayable",
      "type": "function"
    }
  ],
  "bytecode": "0x608060405234801561001057600080fd5b50610752806100206000396000f3fe60806040526004361061004a5760003560e01c8063866b01381461004f578063a9059cbb1461008f578063c71daccb146100b1578063cab13915146100c6578063f2a40db8146100d9575b600080fd5b34801561005b57600080fd5b5061007c61006a366004610675565b60016020526000908152604090205481565b6040519081526020015b60405180910390f35b34801561009b57600080fd5b506100af6100aa366004610696565b610118565b005b3480156100bd57600080fd5b5061007c6103f9565b6100af6100d43660046106bf565b610499565b3480156100e557600080fd5b506100f96100f43660046106bf565b610621565b604080516001600160a01b039093168352602083019190915201610086565b33600090815260016020526040808220546001600160a01b03851683529120548161018a5760405162461bcd60e51b815260206004820152601d60248201527f596f7520646f6e2774206861766520616e206163636f756e742079657400000060448201526064015b60405180910390fd5b600081116101e95760405162461bcd60e51b815260206004820152602660248201527f526563697069656e7420646f6573206e6f74206861766520616e206163636f756044820152651b9d081e595d60d21b6064820152608401610181565b8260006101f76001856106ef565b8154811061021557634e487b7160e01b600052603260045260246000fd5b906000526020600020906002020160010154101561026c5760405162461bcd60e51b8152602060048201526014602482015273496e73756666696369656e742062616c616e636560601b6044820152606401610181565b6102746103f9565b60006102816001856106ef565b8154811061029f57634e487b7160e01b600052603260045260246000fd5b906000526020600020906002020160010154146103105760405162461bcd60e51b815260206004820152602960248201527f4163636f756e742062616c616e636520686173206368616e6765642c20706c6560448201526861736520726574727960b81b6064820152608401610181565b82600061031e6001856106ef565b8154811061033c57634e487b7160e01b600052603260045260246000fd5b9060005260206000209060020201600101600082825461035c91906106ef565b9091555083905060006103706001846106ef565b8154811061038e57634e487b7160e01b600052603260045260246000fd5b906000526020600020906002020160010160008282546103ae91906106d7565b90915550506040518381526001600160a01b0385169033907f0300ac1392a8a3b96b8b9c8eb7bf6ad973c028c4cea499a0936076cbdbe87ecf9060200160405180910390a350505050565b33600090815260016020526040812054806104565760405162461bcd60e51b815260206004820152601d60248201527f596f7520646f6e2774206861766520616e206163636f756e74207965740000006044820152606401610181565b60006104636001836106ef565b8154811061048157634e487b7160e01b600052603260045260246000fd5b90600052602060002090600202016001015491505090565b33600090815260016020526040902054156104f65760405162461bcd60e51b815260206004820152601b60248201527f596f7520616c7265616479206861766520616e206163636f756e7400000000006044820152606401610181565b8034146105455760405162461bcd60e51b815260206004820152601860248201527f496e636f7272656374206465706f73697420616d6f756e7400000000000000006044820152606401610181565b6000805460408051808201909152338152602081018481526001808401855593805290517f290decd9548b62a8d60345a988386fc84ba6bc95484008f6362f93160ef3e5636002840290810180546001600160a01b0319166001600160a01b039093169290921790915590517f290decd9548b62a8d60345a988386fc84ba6bc95484008f6362f93160ef3e56490910155906105e29082906106d7565b3360008181526001602052604080822093909355915183927f7325fb14450d3e5eb288c620b4ff1d6b43a41b33b4a4f143ae88cd4c12f99ea391a35050565b6000818154811061063157600080fd5b6000918252602090912060029091020180546001909101546001600160a01b03909116915082565b80356001600160a01b038116811461067057600080fd5b919050565b600060208284031215610686578081fd5b61068f82610659565b9392505050565b600080604083850312156106a8578081fd5b6106b183610659565b946020939093013593505050565b6000602082840312156106d0578081fd5b5035919050565b600082198211156106ea576106ea610706565b500190565b60008282101561070157610701610706565b500390565b634e487b7160e01b600052601160045260246000fdfea26469706673582212202a637daf10cc09e585df37c93e361a6af0347e99c926f44a3d0e29a517b1b78264736f6c63430008030033",
  "immutableReferences": {},
  "source": "pragma solidity ^0.8.0;\n// SPDX-License-Identifier: MIT \ncontract ERC20Token {\n    // \n    struct Account {\n        address owner;\n        uint balance;\n    }\n\n    // \n    Account[] public accounts;\n    mapping(address => uint) public accountIndex; // \n\n    // \n    event AccountCreated(address indexed owner, uint indexed accountIndex);\n    event BalanceChecked(address indexed owner, uint balance);\n    event TransferCompleted(address indexed from, address indexed to, uint amount);\n\n    // \n    function createAccount(uint initialDeposit) public payable {\n        // \n        require(accountIndex[msg.sender] == 0, \"You already have an account\"); \n\n        //  Ether  initialDeposit \n        require(msg.value == initialDeposit, \"Incorrect deposit amount\");\n\n        //  initialDeposit\n        uint newAccountIndex = accounts.length;\n        accounts.push(Account({\n            owner: msg.sender,\n            balance: initialDeposit\n        }));\n        accountIndex[msg.sender] = newAccountIndex + 1; //  1 0 \n\n        // \n        emit AccountCreated(msg.sender, newAccountIndex);\n    }\n\n    // \n     function checkBalance() public returns (uint) {\n        // Validation: Ensure the address has an account\n        uint _accountIndex = accountIndex[msg.sender];\n        require(_accountIndex > 0, \"You don't have an account yet\");\n\n        return accounts[_accountIndex - 1].balance;\n    }\n\n    // \n    function transfer(address _to, uint _amount) public {\n        // \n        uint _fromIndex = accountIndex[msg.sender];\n        uint _toIndex = accountIndex[_to];\n        require(_fromIndex > 0, \"You don't have an account yet\");\n        require(_toIndex > 0, \"Recipient does not have an account yet\");\n        require(accounts[_fromIndex - 1].balance >= _amount, \"Insufficient balance\");\n\n        //  ()\n        require(accounts[_fromIndex - 1].balance == checkBalance(), \"Account balance has changed, please retry\");\n\n        // \n        accounts[_fromIndex - 1].balance -= _amount;\n        accounts[_toIndex - 1].balance += _amount;\n\n        // \n        emit TransferCompleted(msg.sender, _to, _amount);\n    }\n}",
  "sourcePath": "/home/jeff/private_chain/truffleProject/contracts/ERC20Token.sol",
  "compiler": {
    "name": "solc",
    "version": "0.8.3+commit.8d00100c.Emscripten.clang"
  },
  "schemaVersion": "3.4.16",
  "updatedAt": "2024-08-28T11:12:40.769Z",
  "networkType": "ethereum",
  "devdoc": {
    "kind": "dev",
    "methods": {},
    "version": 1
  },
  "userdoc": {
    "kind": "user",
    "methods": {},
    "version": 1
  }
}