{
  "contractName": "Test",
  "abi": [
    {
      "inputs": [],
      "stateMutability": "nonpayable",
      "type": "constructor"
    },
    {
      "anonymous": false,
      "inputs": [
        {
          "indexed": true,
          "internalType": "address",
          "name": "depositor",
          "type": "address"
        },
        {
          "indexed": false,
          "internalType": "uint256",
          "name": "amount",
          "type": "uint256"
        }
      ],
      "name": "Deposit",
      "type": "event"
    },
    {
      "anonymous": false,
      "inputs": [
        {
          "indexed": true,
          "internalType": "address",
          "name": "to",
          "type": "address"
        },
        {
          "indexed": false,
          "internalType": "uint256",
          "name": "amount",
          "type": "uint256"
        }
      ],
      "name": "Transfer",
      "type": "event"
    },
    {
      "anonymous": false,
      "inputs": [
        {
          "indexed": true,
          "internalType": "address",
          "name": "withdrawer",
          "type": "address"
        },
        {
          "indexed": false,
          "internalType": "uint256",
          "name": "amount",
          "type": "uint256"
        }
      ],
      "name": "Withdrawal",
      "type": "event"
    },
    {
      "inputs": [],
      "name": "owner",
      "outputs": [
        {
          "internalType": "address",
          "name": "",
          "type": "address"
        }
      ],
      "stateMutability": "view",
      "type": "function",
      "constant": true
    },
    {
      "inputs": [],
      "name": "deposit",
      "outputs": [],
      "stateMutability": "payable",
      "type": "function",
      "payable": true
    },
    {
      "inputs": [
        {
          "internalType": "uint256",
          "name": "amount",
          "type": "uint256"
        }
      ],
      "name": "withdraw",
      "outputs": [],
      "stateMutability": "nonpayable",
      "type": "function"
    },
    {
      "inputs": [
        {
          "internalType": "address payable",
          "name": "_to",
          "type": "address"
        },
        {
          "internalType": "uint256",
          "name": "_amount",
          "type": "uint256"
        }
      ],
      "name": "transfer",
      "outputs": [],
      "stateMutability": "nonpayable",
      "type": "function"
    },
    {
      "inputs": [],
      "name": "getBalance",
      "outputs": [
        {
          "internalType": "uint256",
          "name": "",
          "type": "uint256"
        }
      ],
      "stateMutability": "view",
      "type": "function",
      "constant": true
    },
    {
      "inputs": [],
      "name": "getTotalBalance",
      "outputs": [
        {
          "internalType": "uint256",
          "name": "",
          "type": "uint256"
        }
      ],
      "stateMutability": "view",
      "type": "function",
      "constant": true
    }
  ],
  "bytecode": "0x608060405234801561001057600080fd5b50600180546001600160a01b03191633179055610513806100326000396000f3fe6080604052600436106100555760003560e01c806312065fe01461005a57806312b583491461007d5780632e1a7d4d146100915780638da5cb5b146100b3578063a9059cbb146100eb578063d0e30db01461010b575b600080fd5b34801561006657600080fd5b5033315b6040519081526020015b60405180910390f35b34801561008957600080fd5b50303161006a565b34801561009d57600080fd5b506100b16100ac366004610480565b610113565b005b3480156100bf57600080fd5b506001546100d3906001600160a01b031681565b6040516001600160a01b039091168152602001610074565b3480156100f757600080fd5b506100b161010636600461044a565b610259565b6100b1610391565b600081116101795760405162461bcd60e51b815260206004820152602860248201527f5769746864726177616c20616d6f756e74206d75737420626520677265617465604482015267072207468616e20360c41b60648201526084015b60405180910390fd5b336000908152602081905260409020548111156101cf5760405162461bcd60e51b8152602060048201526014602482015273496e73756666696369656e742062616c616e636560601b6044820152606401610170565b33600090815260208190526040812080548392906101ee9084906104b0565b9091555050604051339082156108fc029083906000818181858888f19350505050158015610220573d6000803e3d6000fd5b5060405181815233907f7fcf532c15f0a6db0bd6d0e038bea71d30d808c7d98cb3bf7268a95bf5081b659060200160405180910390a250565b6001546001600160a01b031633146102c25760405162461bcd60e51b815260206004820152602660248201527f4f6e6c7920746865206f776e65722063616e20706572666f726d20746869732060448201526530b1ba34b7b760d11b6064820152608401610170565b30318111156103135760405162461bcd60e51b815260206004820181905260248201527f496e73756666696369656e742062616c616e636520696e20636f6e74726163746044820152606401610170565b6040516001600160a01b0383169082156108fc029083906000818181858888f19350505050158015610349573d6000803e3d6000fd5b50816001600160a01b03167f69ca02dd4edd7bf0a4abb9ed3b7af3f14778db5d61921c7dc7cd545266326de28260405161038591815260200190565b60405180910390a25050565b600034116103ef5760405162461bcd60e51b815260206004820152602560248201527f4465706f73697420616d6f756e74206d75737420626520677265617465722074604482015264068616e20360dc1b6064820152608401610170565b336000908152602081905260408120805434929061040e908490610498565b909155505060405134815233907fe1fffcc4923d04b559f4d29a8bfc6cda04eb5b0d3c460751c2402c5c5cc9109c9060200160405180910390a2565b6000806040838503121561045c578182fd5b82356001600160a01b0381168114610472578283fd5b946020939093013593505050565b600060208284031215610491578081fd5b5035919050565b600082198211156104ab576104ab6104c7565b500190565b6000828210156104c2576104c26104c7565b500390565b634e487b7160e01b600052601160045260246000fdfea26469706673582212202fb6cf96efaa21dff3630a1bc1c8ea4275da864d6467b2842bb831f0965f573964736f6c63430008030033",
  "immutableReferences": {},
  "source": "pragma solidity ^0.8.0;\n\ncontract Test {\n    mapping(address => uint256) private balances;\n    address public owner;\n    event Deposit(address indexed depositor, uint256 amount);\n    event Withdrawal(address indexed withdrawer, uint256 amount);\n    event Transfer(address indexed to, uint amount);\n\n     constructor() {\n        owner = msg.sender;\n    }\n\n    function deposit() public payable {\n        require(msg.value > 0, \"Deposit amount must be greater than 0\");\n        balances[msg.sender] += msg.value;\n        emit Deposit(msg.sender, msg.value);\n    }\n\n    function withdraw(uint256 amount) public {\n        require(amount > 0, \"Withdrawal amount must be greater than 0\");\n        require(balances[msg.sender] >= amount, \"Insufficient balance\");\n\n        balances[msg.sender] -= amount;\n        payable(msg.sender).transfer(amount);\n        emit Withdrawal(msg.sender, amount);\n    }\n\n    function transfer(address payable _to, uint _amount) public {\n        require(msg.sender == owner, \"Only the owner can perform this action\");\n        require(address(this).balance >= _amount, \"Insufficient balance in contract\");\n        _to.transfer(_amount);\n        emit Transfer(_to, _amount);\n    }\n\n    function getBalance() public view returns (uint256) {\n        return msg.sender.balance;\n    }\n\n    function getTotalBalance() public view returns (uint256) {\n        return address(this).balance;\n    }\n}\n",
  "sourcePath": "/home/jeff/private_chain/truffleProject/contracts/Test.sol",
  "compiler": {
    "name": "solc",
    "version": "0.8.3+commit.8d00100c.Emscripten.clang"
  },
  "schemaVersion": "3.4.16",
  "updatedAt": "2024-03-20T05:59:45.561Z",
  "networkType": "ethereum",
  "devdoc": {
    "kind": "dev",
    "methods": {},
    "version": 1
  },
  "userdoc": {
    "kind": "user",
    "methods": {},
    "version": 1
  }
}