{
  "contractName": "Test",
  "abi": [
    {
      "constant": false,
      "inputs": [
        {
          "internalType": "uint256",
          "name": "_Number",
          "type": "uint256"
        }
      ],
      "name": "saveNumber",
      "outputs": [],
      "payable": false,
      "stateMutability": "nonpayable",
      "type": "function"
    },
    {
      "constant": false,
      "inputs": [],
      "name": "deleteNumber",
      "outputs": [],
      "payable": false,
      "stateMutability": "nonpayable",
      "type": "function"
    },
    {
      "constant": true,
      "inputs": [],
      "name": "getNumber",
      "outputs": [
        {
          "internalType": "uint256",
          "name": "",
          "type": "uint256"
        }
      ],
      "payable": false,
      "stateMutability": "view",
      "type": "function"
    }
  ],
  "bytecode": "0x608060405234801561001057600080fd5b5060c18061001f6000396000f3fe6080604052348015600f57600080fd5b5060043610603c5760003560e01c8063edbd8f9f146041578063f2c9ecd8146049578063f33ded7b146061575b600080fd5b6047607b565b005b604f6081565b60408051918252519081900360200190f35b604760048036036020811015607557600080fd5b50356087565b60008055565b60005490565b60005556fea265627a7a723158200597acf347b2cd1a5b93f5241cdc116954a5c236ee57f84144b52434344131ea64736f6c63430005100032",
  "source": "pragma solidity ^0.5.0;\n\ncontract Test {\n    uint favoriteNumber;\n\n    function saveNumber(uint _Number) public {\n        favoriteNumber = _Number;\n    }\n\n\n    function deleteNumber() public {\n        favoriteNumber = 0;\n    }\n\n\n    function getNumber() public view returns(uint) {\n        return favoriteNumber;\n    }\n}\n",
  "sourcePath": "/home/jeff/private_chain/truffleProject/contracts/Test.sol",
  "compiler": {
    "name": "solc",
    "version": "0.5.16+commit.9c3226ce.Emscripten.clang"
  },
  "schemaVersion": "3.4.16",
  "updatedAt": "2024-01-31T09:23:00.422Z",
  "networkType": "ethereum",
  "devdoc": {
    "methods": {}
  },
  "userdoc": {
    "methods": {}
  }
}